{
  "_format": "hh-sol-artifact-1",
  "contractName": "Factory",
  "sourceName": "contracts/Factory.sol",
  "abi": [
    {
      "inputs": [],
      "stateMutability": "nonpayable",
      "type": "constructor"
    },
    {
      "inputs": [
        {
          "internalType": "string",
          "name": "name_",
          "type": "string"
        },
        {
          "internalType": "string",
          "name": "symbol_",
          "type": "string"
        }
      ],
      "name": "deploy721",
      "outputs": [
        {
          "internalType": "address",
          "name": "",
          "type": "address"
        }
      ],
      "stateMutability": "nonpayable",
      "type": "function"
    }
  ],
  "bytecode": "0x608060405234801561001057600080fd5b50613806806100206000396000f3fe60806040523480156200001157600080fd5b50600436106200002e5760003560e01c806307443ca91462000033575b600080fd5b6200005160048036038101906200004b919062000232565b62000069565b604051620000609190620002fc565b60405180910390f35b600082826040516200007b90620000ae565b62000088929190620003a2565b604051809103906000f080158015620000a5573d6000803e3d6000fd5b50905092915050565b6133f380620003de83390190565b6000604051905090565b600080fd5b600080fd5b600080fd5b600080fd5b6000601f19601f8301169050919050565b7f4e487b7100000000000000000000000000000000000000000000000000000000600052604160045260246000fd5b6200012582620000da565b810181811067ffffffffffffffff82111715620001475762000146620000eb565b5b80604052505050565b60006200015c620000bc565b90506200016a82826200011a565b919050565b600067ffffffffffffffff8211156200018d576200018c620000eb565b5b6200019882620000da565b9050602081019050919050565b82818337600083830152505050565b6000620001cb620001c5846200016f565b62000150565b905082815260208101848484011115620001ea57620001e9620000d5565b5b620001f7848285620001a5565b509392505050565b600082601f830112620002175762000216620000d0565b5b813562000229848260208601620001b4565b91505092915050565b600080604083850312156200024c576200024b620000c6565b5b600083013567ffffffffffffffff8111156200026d576200026c620000cb565b5b6200027b85828601620001ff565b925050602083013567ffffffffffffffff8111156200029f576200029e620000cb565b5b620002ad85828601620001ff565b9150509250929050565b600073ffffffffffffffffffffffffffffffffffffffff82169050919050565b6000620002e482620002b7565b9050919050565b620002f681620002d7565b82525050565b6000602082019050620003136000830184620002eb565b92915050565b600081519050919050565b600082825260208201905092915050565b60005b838110156200035557808201518184015260208101905062000338565b60008484015250505050565b60006200036e8262000319565b6200037a818562000324565b93506200038c81856020860162000335565b6200039781620000da565b840191505092915050565b60006040820190508181036000830152620003be818562000361565b90508181036020830152620003d4818462000361565b9050939250505056fe60806040523480156200001157600080fd5b50604051620033f3380380620033f3833981810160405281019062000037919062000303565b818181600090816200004a9190620005d3565b5080600190816200005c9190620005d3565b5050506000600660006101000a81548160ff0219169083151502179055506200009a6200008e620000a260201b60201c565b620000aa60201b60201c565b5050620006ba565b600033905090565b6000600660019054906101000a900473ffffffffffffffffffffffffffffffffffffffff16905081600660016101000a81548173ffffffffffffffffffffffffffffffffffffffff021916908373ffffffffffffffffffffffffffffffffffffffff1602179055508173ffffffffffffffffffffffffffffffffffffffff168173ffffffffffffffffffffffffffffffffffffffff167f8be0079c531659141344cd1fd0a4f28419497f9722a3daafe3b4186f6b6457e060405160405180910390a35050565b6000604051905090565b600080fd5b600080fd5b600080fd5b600080fd5b6000601f19601f8301169050919050565b7f4e487b7100000000000000000000000000000000000000000000000000000000600052604160045260246000fd5b620001d9826200018e565b810181811067ffffffffffffffff82111715620001fb57620001fa6200019f565b5b80604052505050565b60006200021062000170565b90506200021e8282620001ce565b919050565b600067ffffffffffffffff8211156200024157620002406200019f565b5b6200024c826200018e565b9050602081019050919050565b60005b83811015620002795780820151818401526020810190506200025c565b60008484015250505050565b60006200029c620002968462000223565b62000204565b905082815260208101848484011115620002bb57620002ba62000189565b5b620002c884828562000259565b509392505050565b600082601f830112620002e857620002e762000184565b5b8151620002fa84826020860162000285565b91505092915050565b600080604083850312156200031d576200031c6200017a565b5b600083015167ffffffffffffffff8111156200033e576200033d6200017f565b5b6200034c85828601620002d0565b925050602083015167ffffffffffffffff81111562000370576200036f6200017f565b5b6200037e85828601620002d0565b9150509250929050565b600081519050919050565b7f4e487b7100000000000000000000000000000000000000000000000000000000600052602260045260246000fd5b60006002820490506001821680620003db57607f821691505b602082108103620003f157620003f062000393565b5b50919050565b60008190508160005260206000209050919050565b60006020601f8301049050919050565b600082821b905092915050565b6000600883026200045b7fffffffffffffffffffffffffffffffffffffffffffffffffffffffffffffffff826200041c565b6200046786836200041c565b95508019841693508086168417925050509392505050565b6000819050919050565b6000819050919050565b6000620004b4620004ae620004a8846200047f565b62000489565b6200047f565b9050919050565b6000819050919050565b620004d08362000493565b620004e8620004df82620004bb565b84845462000429565b825550505050565b600090565b620004ff620004f0565b6200050c818484620004c5565b505050565b5b81811015620005345762000528600082620004f5565b60018101905062000512565b5050565b601f82111562000583576200054d81620003f7565b62000558846200040c565b8101602085101562000568578190505b6200058062000577856200040c565b83018262000511565b50505b505050565b600082821c905092915050565b6000620005a86000198460080262000588565b1980831691505092915050565b6000620005c3838362000595565b9150826002028217905092915050565b620005de8262000388565b67ffffffffffffffff811115620005fa57620005f96200019f565b5b620006068254620003c2565b6200061382828562000538565b600060209050601f8311600181146200064b576000841562000636578287015190505b620006428582620005b5565b865550620006b2565b601f1984166200065b86620003f7565b60005b8281101562000685578489015182556001820191506020850194506020810190506200065e565b86831015620006a55784890151620006a1601f89168262000595565b8355505b6001600288020188555050505b505050505050565b612d2980620006ca6000396000f3fe608060405234801561001057600080fd5b50600436106101375760003560e01c80636352211e116100b857806395d89b411161007c57806395d89b4114610300578063a22cb4651461031e578063b88d4fde1461033a578063c87b56dd14610356578063e985e9c514610386578063f2fde38b146103b657610137565b80636352211e1461026e57806370a082311461029e578063715018a6146102ce5780638456cb59146102d85780638da5cb5b146102e257610137565b80633f4ba83a116100ff5780633f4ba83a146101f257806340d097c3146101fc57806342842e0e1461021857806342966c68146102345780635c975abb1461025057610137565b806301ffc9a71461013c57806306fdde031461016c578063081812fc1461018a578063095ea7b3146101ba57806323b872dd146101d6575b600080fd5b61015660048036038101906101519190611e4f565b6103d2565b6040516101639190611e97565b60405180910390f35b6101746104b4565b6040516101819190611f42565b60405180910390f35b6101a4600480360381019061019f9190611f9a565b610546565b6040516101b19190612008565b60405180910390f35b6101d460048036038101906101cf919061204f565b61058c565b005b6101f060048036038101906101eb919061208f565b6106a3565b005b6101fa610703565b005b610216600480360381019061021191906120e2565b610715565b005b610232600480360381019061022d919061208f565b610743565b005b61024e60048036038101906102499190611f9a565b610763565b005b6102586107bf565b6040516102659190611e97565b60405180910390f35b61028860048036038101906102839190611f9a565b6107d6565b6040516102959190612008565b60405180910390f35b6102b860048036038101906102b391906120e2565b61085c565b6040516102c5919061211e565b60405180910390f35b6102d6610913565b005b6102e0610927565b005b6102ea610939565b6040516102f79190612008565b60405180910390f35b610308610963565b6040516103159190611f42565b60405180910390f35b61033860048036038101906103339190612165565b6109f5565b005b610354600480360381019061034f91906122da565b610a0b565b005b610370600480360381019061036b9190611f9a565b610a6d565b60405161037d9190611f42565b60405180910390f35b6103a0600480360381019061039b919061235d565b610ad5565b6040516103ad9190611e97565b60405180910390f35b6103d060048036038101906103cb91906120e2565b610b69565b005b60007f80ac58cd000000000000000000000000000000000000000000000000000000007bffffffffffffffffffffffffffffffffffffffffffffffffffffffff1916827bffffffffffffffffffffffffffffffffffffffffffffffffffffffff1916148061049d57507f5b5e139f000000000000000000000000000000000000000000000000000000007bffffffffffffffffffffffffffffffffffffffffffffffffffffffff1916827bffffffffffffffffffffffffffffffffffffffffffffffffffffffff1916145b806104ad57506104ac82610bec565b5b9050919050565b6060600080546104c3906123cc565b80601f01602080910402602001604051908101604052809291908181526020018280546104ef906123cc565b801561053c5780601f106105115761010080835404028352916020019161053c565b820191906000526020600020905b81548152906001019060200180831161051f57829003601f168201915b5050505050905090565b600061055182610c56565b6004600083815260200190815260200160002060009054906101000a900473ffffffffffffffffffffffffffffffffffffffff169050919050565b6000610597826107d6565b90508073ffffffffffffffffffffffffffffffffffffffff168373ffffffffffffffffffffffffffffffffffffffff1603610607576040517f08c379a00000000000000000000000000000000000000000000000000000000081526004016105fe9061246f565b60405180910390fd5b8073ffffffffffffffffffffffffffffffffffffffff16610626610ca1565b73ffffffffffffffffffffffffffffffffffffffff16148061065557506106548161064f610ca1565b610ad5565b5b610694576040517f08c379a000000000000000000000000000000000000000000000000000000000815260040161068b90612501565b60405180910390fd5b61069e8383610ca9565b505050565b6106b46106ae610ca1565b82610d62565b6106f3576040517f08c379a00000000000000000000000000000000000000000000000000000000081526004016106ea90612593565b60405180910390fd5b6106fe838383610df7565b505050565b61070b6110f0565b61071361116e565b565b61071d6110f0565b600061072960076111d1565b905061073560076111df565b61073f82826111f5565b5050565b61075e83838360405180602001604052806000815250610a0b565b505050565b61077461076e610ca1565b82610d62565b6107b3576040517f08c379a00000000000000000000000000000000000000000000000000000000081526004016107aa90612593565b60405180910390fd5b6107bc81611213565b50565b6000600660009054906101000a900460ff16905090565b6000806107e283611361565b9050600073ffffffffffffffffffffffffffffffffffffffff168173ffffffffffffffffffffffffffffffffffffffff1603610853576040517f08c379a000000000000000000000000000000000000000000000000000000000815260040161084a906125ff565b60405180910390fd5b80915050919050565b60008073ffffffffffffffffffffffffffffffffffffffff168273ffffffffffffffffffffffffffffffffffffffff16036108cc576040517f08c379a00000000000000000000000000000000000000000000000000000000081526004016108c390612691565b60405180910390fd5b600360008373ffffffffffffffffffffffffffffffffffffffff1673ffffffffffffffffffffffffffffffffffffffff168152602001908152602001600020549050919050565b61091b6110f0565b610925600061139e565b565b61092f6110f0565b610937611464565b565b6000600660019054906101000a900473ffffffffffffffffffffffffffffffffffffffff16905090565b606060018054610972906123cc565b80601f016020809104026020016040519081016040528092919081815260200182805461099e906123cc565b80156109eb5780601f106109c0576101008083540402835291602001916109eb565b820191906000526020600020905b8154815290600101906020018083116109ce57829003601f168201915b5050505050905090565b610a07610a00610ca1565b83836114c7565b5050565b610a1c610a16610ca1565b83610d62565b610a5b576040517f08c379a0000000000000000000000000000000000000000000000000000000008152600401610a5290612593565b60405180910390fd5b610a6784848484611633565b50505050565b6060610a7882610c56565b6000610a8261168f565b90506000815111610aa25760405180602001604052806000815250610acd565b80610aac846116a6565b604051602001610abd9291906126ed565b6040516020818303038152906040525b915050919050565b6000600560008473ffffffffffffffffffffffffffffffffffffffff1673ffffffffffffffffffffffffffffffffffffffff16815260200190815260200160002060008373ffffffffffffffffffffffffffffffffffffffff1673ffffffffffffffffffffffffffffffffffffffff16815260200190815260200160002060009054906101000a900460ff16905092915050565b610b716110f0565b600073ffffffffffffffffffffffffffffffffffffffff168173ffffffffffffffffffffffffffffffffffffffff1603610be0576040517f08c379a0000000000000000000000000000000000000000000000000000000008152600401610bd790612783565b60405180910390fd5b610be98161139e565b50565b60007f01ffc9a7000000000000000000000000000000000000000000000000000000007bffffffffffffffffffffffffffffffffffffffffffffffffffffffff1916827bffffffffffffffffffffffffffffffffffffffffffffffffffffffff1916149050919050565b610c5f81611774565b610c9e576040517f08c379a0000000000000000000000000000000000000000000000000000000008152600401610c95906125ff565b60405180910390fd5b50565b600033905090565b816004600083815260200190815260200160002060006101000a81548173ffffffffffffffffffffffffffffffffffffffff021916908373ffffffffffffffffffffffffffffffffffffffff160217905550808273ffffffffffffffffffffffffffffffffffffffff16610d1c836107d6565b73ffffffffffffffffffffffffffffffffffffffff167f8c5be1e5ebec7d5bd14f71427d1e84f3dd0314c0f7b2291e5b200ac8c7c3b92560405160405180910390a45050565b600080610d6e836107d6565b90508073ffffffffffffffffffffffffffffffffffffffff168473ffffffffffffffffffffffffffffffffffffffff161480610db05750610daf8185610ad5565b5b80610dee57508373ffffffffffffffffffffffffffffffffffffffff16610dd684610546565b73ffffffffffffffffffffffffffffffffffffffff16145b91505092915050565b8273ffffffffffffffffffffffffffffffffffffffff16610e17826107d6565b73ffffffffffffffffffffffffffffffffffffffff1614610e6d576040517f08c379a0000000000000000000000000000000000000000000000000000000008152600401610e6490612815565b60405180910390fd5b600073ffffffffffffffffffffffffffffffffffffffff168273ffffffffffffffffffffffffffffffffffffffff1603610edc576040517f08c379a0000000000000000000000000000000000000000000000000000000008152600401610ed3906128a7565b60405180910390fd5b610ee983838360016117b5565b8273ffffffffffffffffffffffffffffffffffffffff16610f09826107d6565b73ffffffffffffffffffffffffffffffffffffffff1614610f5f576040517f08c379a0000000000000000000000000000000000000000000000000000000008152600401610f5690612815565b60405180910390fd5b6004600082815260200190815260200160002060006101000a81549073ffffffffffffffffffffffffffffffffffffffff02191690556001600360008573ffffffffffffffffffffffffffffffffffffffff1673ffffffffffffffffffffffffffffffffffffffff168152602001908152602001600020600082825403925050819055506001600360008473ffffffffffffffffffffffffffffffffffffffff1673ffffffffffffffffffffffffffffffffffffffff16815260200190815260200160002060008282540192505081905550816002600083815260200190815260200160002060006101000a81548173ffffffffffffffffffffffffffffffffffffffff021916908373ffffffffffffffffffffffffffffffffffffffff160217905550808273ffffffffffffffffffffffffffffffffffffffff168473ffffffffffffffffffffffffffffffffffffffff167fddf252ad1be2c89b69c2b068fc378daa952ba7f163c4a11628f55a4df523b3ef60405160405180910390a46110eb83838360016117cf565b505050565b6110f8610ca1565b73ffffffffffffffffffffffffffffffffffffffff16611116610939565b73ffffffffffffffffffffffffffffffffffffffff161461116c576040517f08c379a000000000000000000000000000000000000000000000000000000000815260040161116390612913565b60405180910390fd5b565b6111766117d5565b6000600660006101000a81548160ff0219169083151502179055507f5db9ee0a495bf2e6ff9c91a7834c1ba4fdd244a5e8aa4e537bd38aeae4b073aa6111ba610ca1565b6040516111c79190612008565b60405180910390a1565b600081600001549050919050565b6001816000016000828254019250508190555050565b61120f82826040518060200160405280600081525061181e565b5050565b600061121e826107d6565b905061122e8160008460016117b5565b611237826107d6565b90506004600083815260200190815260200160002060006101000a81549073ffffffffffffffffffffffffffffffffffffffff02191690556001600360008373ffffffffffffffffffffffffffffffffffffffff1673ffffffffffffffffffffffffffffffffffffffff168152602001908152602001600020600082825403925050819055506002600083815260200190815260200160002060006101000a81549073ffffffffffffffffffffffffffffffffffffffff021916905581600073ffffffffffffffffffffffffffffffffffffffff168273ffffffffffffffffffffffffffffffffffffffff167fddf252ad1be2c89b69c2b068fc378daa952ba7f163c4a11628f55a4df523b3ef60405160405180910390a461135d8160008460016117cf565b5050565b60006002600083815260200190815260200160002060009054906101000a900473ffffffffffffffffffffffffffffffffffffffff169050919050565b6000600660019054906101000a900473ffffffffffffffffffffffffffffffffffffffff16905081600660016101000a81548173ffffffffffffffffffffffffffffffffffffffff021916908373ffffffffffffffffffffffffffffffffffffffff1602179055508173ffffffffffffffffffffffffffffffffffffffff168173ffffffffffffffffffffffffffffffffffffffff167f8be0079c531659141344cd1fd0a4f28419497f9722a3daafe3b4186f6b6457e060405160405180910390a35050565b61146c611879565b6001600660006101000a81548160ff0219169083151502179055507f62e78cea01bee320cd4e420270b5ea74000d11b0c9f74754ebdbfc544b05a2586114b0610ca1565b6040516114bd9190612008565b60405180910390a1565b8173ffffffffffffffffffffffffffffffffffffffff168373ffffffffffffffffffffffffffffffffffffffff1603611535576040517f08c379a000000000000000000000000000000000000000000000000000000000815260040161152c9061297f565b60405180910390fd5b80600560008573ffffffffffffffffffffffffffffffffffffffff1673ffffffffffffffffffffffffffffffffffffffff16815260200190815260200160002060008473ffffffffffffffffffffffffffffffffffffffff1673ffffffffffffffffffffffffffffffffffffffff16815260200190815260200160002060006101000a81548160ff0219169083151502179055508173ffffffffffffffffffffffffffffffffffffffff168373ffffffffffffffffffffffffffffffffffffffff167f17307eab39ab6107e8899845ad3d59bd9653f200f220920489ca2b5937696c31836040516116269190611e97565b60405180910390a3505050565b61163e848484610df7565b61164a848484846118c3565b611689576040517f08c379a000000000000000000000000000000000000000000000000000000000815260040161168090612a11565b60405180910390fd5b50505050565b606060405180602001604052806000815250905090565b6060600060016116b584611a4a565b01905060008167ffffffffffffffff8111156116d4576116d36121af565b5b6040519080825280601f01601f1916602001820160405280156117065781602001600182028036833780820191505090505b509050600082602001820190505b600115611769578080600190039150507f3031323334353637383961626364656600000000000000000000000000000000600a86061a8153600a858161175d5761175c612a31565b5b04945060008503611714575b819350505050919050565b60008073ffffffffffffffffffffffffffffffffffffffff1661179683611361565b73ffffffffffffffffffffffffffffffffffffffff1614159050919050565b6117bd611879565b6117c984848484611b9d565b50505050565b50505050565b6117dd6107bf565b61181c576040517f08c379a000000000000000000000000000000000000000000000000000000000815260040161181390612aac565b60405180910390fd5b565b6118288383611ba3565b61183560008484846118c3565b611874576040517f08c379a000000000000000000000000000000000000000000000000000000000815260040161186b90612a11565b60405180910390fd5b505050565b6118816107bf565b156118c1576040517f08c379a00000000000000000000000000000000000000000000000000000000081526004016118b890612b18565b60405180910390fd5b565b60006118e48473ffffffffffffffffffffffffffffffffffffffff16611dc0565b15611a3d578373ffffffffffffffffffffffffffffffffffffffff1663150b7a0261190d610ca1565b8786866040518563ffffffff1660e01b815260040161192f9493929190612b8d565b6020604051808303816000875af192505050801561196b57506040513d601f19601f820116820180604052508101906119689190612bee565b60015b6119ed573d806000811461199b576040519150601f19603f3d011682016040523d82523d6000602084013e6119a0565b606091505b5060008151036119e5576040517f08c379a00000000000000000000000000000000000000000000000000000000081526004016119dc90612a11565b60405180910390fd5b805181602001fd5b63150b7a0260e01b7bffffffffffffffffffffffffffffffffffffffffffffffffffffffff1916817bffffffffffffffffffffffffffffffffffffffffffffffffffffffff191614915050611a42565b600190505b949350505050565b600080600090507a184f03e93ff9f4daa797ed6e38ed64bf6a1f0100000000000000008310611aa8577a184f03e93ff9f4daa797ed6e38ed64bf6a1f0100000000000000008381611a9e57611a9d612a31565b5b0492506040810190505b6d04ee2d6d415b85acef81000000008310611ae5576d04ee2d6d415b85acef81000000008381611adb57611ada612a31565b5b0492506020810190505b662386f26fc100008310611b1457662386f26fc100008381611b0a57611b09612a31565b5b0492506010810190505b6305f5e1008310611b3d576305f5e1008381611b3357611b32612a31565b5b0492506008810190505b6127108310611b62576127108381611b5857611b57612a31565b5b0492506004810190505b60648310611b855760648381611b7b57611b7a612a31565b5b0492506002810190505b600a8310611b94576001810190505b80915050919050565b50505050565b600073ffffffffffffffffffffffffffffffffffffffff168273ffffffffffffffffffffffffffffffffffffffff1603611c12576040517f08c379a0000000000000000000000000000000000000000000000000000000008152600401611c0990612c67565b60405180910390fd5b611c1b81611774565b15611c5b576040517f08c379a0000000000000000000000000000000000000000000000000000000008152600401611c5290612cd3565b60405180910390fd5b611c696000838360016117b5565b611c7281611774565b15611cb2576040517f08c379a0000000000000000000000000000000000000000000000000000000008152600401611ca990612cd3565b60405180910390fd5b6001600360008473ffffffffffffffffffffffffffffffffffffffff1673ffffffffffffffffffffffffffffffffffffffff16815260200190815260200160002060008282540192505081905550816002600083815260200190815260200160002060006101000a81548173ffffffffffffffffffffffffffffffffffffffff021916908373ffffffffffffffffffffffffffffffffffffffff160217905550808273ffffffffffffffffffffffffffffffffffffffff16600073ffffffffffffffffffffffffffffffffffffffff167fddf252ad1be2c89b69c2b068fc378daa952ba7f163c4a11628f55a4df523b3ef60405160405180910390a4611dbc6000838360016117cf565b5050565b6000808273ffffffffffffffffffffffffffffffffffffffff163b119050919050565b6000604051905090565b600080fd5b600080fd5b60007fffffffff0000000000000000000000000000000000000000000000000000000082169050919050565b611e2c81611df7565b8114611e3757600080fd5b50565b600081359050611e4981611e23565b92915050565b600060208284031215611e6557611e64611ded565b5b6000611e7384828501611e3a565b91505092915050565b60008115159050919050565b611e9181611e7c565b82525050565b6000602082019050611eac6000830184611e88565b92915050565b600081519050919050565b600082825260208201905092915050565b60005b83811015611eec578082015181840152602081019050611ed1565b60008484015250505050565b6000601f19601f8301169050919050565b6000611f1482611eb2565b611f1e8185611ebd565b9350611f2e818560208601611ece565b611f3781611ef8565b840191505092915050565b60006020820190508181036000830152611f5c8184611f09565b905092915050565b6000819050919050565b611f7781611f64565b8114611f8257600080fd5b50565b600081359050611f9481611f6e565b92915050565b600060208284031215611fb057611faf611ded565b5b6000611fbe84828501611f85565b91505092915050565b600073ffffffffffffffffffffffffffffffffffffffff82169050919050565b6000611ff282611fc7565b9050919050565b61200281611fe7565b82525050565b600060208201905061201d6000830184611ff9565b92915050565b61202c81611fe7565b811461203757600080fd5b50565b60008135905061204981612023565b92915050565b6000806040838503121561206657612065611ded565b5b60006120748582860161203a565b925050602061208585828601611f85565b9150509250929050565b6000806000606084860312156120a8576120a7611ded565b5b60006120b68682870161203a565b93505060206120c78682870161203a565b92505060406120d886828701611f85565b9150509250925092565b6000602082840312156120f8576120f7611ded565b5b60006121068482850161203a565b91505092915050565b61211881611f64565b82525050565b6000602082019050612133600083018461210f565b92915050565b61214281611e7c565b811461214d57600080fd5b50565b60008135905061215f81612139565b92915050565b6000806040838503121561217c5761217b611ded565b5b600061218a8582860161203a565b925050602061219b85828601612150565b9150509250929050565b600080fd5b600080fd5b7f4e487b7100000000000000000000000000000000000000000000000000000000600052604160045260246000fd5b6121e782611ef8565b810181811067ffffffffffffffff82111715612206576122056121af565b5b80604052505050565b6000612219611de3565b905061222582826121de565b919050565b600067ffffffffffffffff821115612245576122446121af565b5b61224e82611ef8565b9050602081019050919050565b82818337600083830152505050565b600061227d6122788461222a565b61220f565b905082815260208101848484011115612299576122986121aa565b5b6122a484828561225b565b509392505050565b600082601f8301126122c1576122c06121a5565b5b81356122d184826020860161226a565b91505092915050565b600080600080608085870312156122f4576122f3611ded565b5b60006123028782880161203a565b94505060206123138782880161203a565b935050604061232487828801611f85565b925050606085013567ffffffffffffffff81111561234557612344611df2565b5b612351878288016122ac565b91505092959194509250565b6000806040838503121561237457612373611ded565b5b60006123828582860161203a565b92505060206123938582860161203a565b9150509250929050565b7f4e487b7100000000000000000000000000000000000000000000000000000000600052602260045260246000fd5b600060028204905060018216806123e457607f821691505b6020821081036123f7576123f661239d565b5b50919050565b7f4552433732313a20617070726f76616c20746f2063757272656e74206f776e6560008201527f7200000000000000000000000000000000000000000000000000000000000000602082015250565b6000612459602183611ebd565b9150612464826123fd565b604082019050919050565b600060208201905081810360008301526124888161244c565b9050919050565b7f4552433732313a20617070726f76652063616c6c6572206973206e6f7420746f60008201527f6b656e206f776e6572206f7220617070726f76656420666f7220616c6c000000602082015250565b60006124eb603d83611ebd565b91506124f68261248f565b604082019050919050565b6000602082019050818103600083015261251a816124de565b9050919050565b7f4552433732313a2063616c6c6572206973206e6f7420746f6b656e206f776e6560008201527f72206f7220617070726f76656400000000000000000000000000000000000000602082015250565b600061257d602d83611ebd565b915061258882612521565b604082019050919050565b600060208201905081810360008301526125ac81612570565b9050919050565b7f4552433732313a20696e76616c696420746f6b656e2049440000000000000000600082015250565b60006125e9601883611ebd565b91506125f4826125b3565b602082019050919050565b60006020820190508181036000830152612618816125dc565b9050919050565b7f4552433732313a2061646472657373207a65726f206973206e6f74206120766160008201527f6c6964206f776e65720000000000000000000000000000000000000000000000602082015250565b600061267b602983611ebd565b91506126868261261f565b604082019050919050565b600060208201905081810360008301526126aa8161266e565b9050919050565b600081905092915050565b60006126c782611eb2565b6126d181856126b1565b93506126e1818560208601611ece565b80840191505092915050565b60006126f982856126bc565b915061270582846126bc565b91508190509392505050565b7f4f776e61626c653a206e6577206f776e657220697320746865207a65726f206160008201527f6464726573730000000000000000000000000000000000000000000000000000602082015250565b600061276d602683611ebd565b915061277882612711565b604082019050919050565b6000602082019050818103600083015261279c81612760565b9050919050565b7f4552433732313a207472616e736665722066726f6d20696e636f72726563742060008201527f6f776e6572000000000000000000000000000000000000000000000000000000602082015250565b60006127ff602583611ebd565b915061280a826127a3565b604082019050919050565b6000602082019050818103600083015261282e816127f2565b9050919050565b7f4552433732313a207472616e7366657220746f20746865207a65726f2061646460008201527f7265737300000000000000000000000000000000000000000000000000000000602082015250565b6000612891602483611ebd565b915061289c82612835565b604082019050919050565b600060208201905081810360008301526128c081612884565b9050919050565b7f4f776e61626c653a2063616c6c6572206973206e6f7420746865206f776e6572600082015250565b60006128fd602083611ebd565b9150612908826128c7565b602082019050919050565b6000602082019050818103600083015261292c816128f0565b9050919050565b7f4552433732313a20617070726f766520746f2063616c6c657200000000000000600082015250565b6000612969601983611ebd565b915061297482612933565b602082019050919050565b600060208201905081810360008301526129988161295c565b9050919050565b7f4552433732313a207472616e7366657220746f206e6f6e20455243373231526560008201527f63656976657220696d706c656d656e7465720000000000000000000000000000602082015250565b60006129fb603283611ebd565b9150612a068261299f565b604082019050919050565b60006020820190508181036000830152612a2a816129ee565b9050919050565b7f4e487b7100000000000000000000000000000000000000000000000000000000600052601260045260246000fd5b7f5061757361626c653a206e6f7420706175736564000000000000000000000000600082015250565b6000612a96601483611ebd565b9150612aa182612a60565b602082019050919050565b60006020820190508181036000830152612ac581612a89565b9050919050565b7f5061757361626c653a2070617573656400000000000000000000000000000000600082015250565b6000612b02601083611ebd565b9150612b0d82612acc565b602082019050919050565b60006020820190508181036000830152612b3181612af5565b9050919050565b600081519050919050565b600082825260208201905092915050565b6000612b5f82612b38565b612b698185612b43565b9350612b79818560208601611ece565b612b8281611ef8565b840191505092915050565b6000608082019050612ba26000830187611ff9565b612baf6020830186611ff9565b612bbc604083018561210f565b8181036060830152612bce8184612b54565b905095945050505050565b600081519050612be881611e23565b92915050565b600060208284031215612c0457612c03611ded565b5b6000612c1284828501612bd9565b91505092915050565b7f4552433732313a206d696e7420746f20746865207a65726f2061646472657373600082015250565b6000612c51602083611ebd565b9150612c5c82612c1b565b602082019050919050565b60006020820190508181036000830152612c8081612c44565b9050919050565b7f4552433732313a20746f6b656e20616c7265616479206d696e74656400000000600082015250565b6000612cbd601c83611ebd565b9150612cc882612c87565b602082019050919050565b60006020820190508181036000830152612cec81612cb0565b905091905056fea2646970667358221220c08b2c50932399dfcf256b02a53570b2c1b8b17c6c09e82f0f21dbf8c7a6166564736f6c63430008120033a2646970667358221220c94fc7acb788ccda2fb951e51098dcb962dde1df27b5d7c2bab51f3c788fb96b64736f6c63430008120033",
  "linkReferences": {},
  "deployedLinkReferences": {}
}